{"abi":[{"type":"constructor","inputs":[],"stateMutability":"nonpayable"},{"type":"function","name":"benchmark","inputs":[],"outputs":[{"name":"","type":"bytes1","internalType":"bytes1"},{"name":"","type":"bytes1","internalType":"bytes1"},{"name":"","type":"bytes1","internalType":"bytes1"}],"stateMutability":"pure"},{"type":"function","name":"getValue","inputs":[],"outputs":[{"name":"","type":"uint256","internalType":"uint256"}],"stateMutability":"view"},{"type":"function","name":"setValue","inputs":[{"name":"newValue","type":"uint256","internalType":"uint256"}],"outputs":[],"stateMutability":"nonpayable"},{"type":"event","name":"ValueChanged","inputs":[{"name":"newValue","type":"uint256","indexed":false,"internalType":"uint256"}],"anonymous":false}],"bytecode":{"object":"0x608060405234801561000f575f80fd5b505f8081905550610231806100235f395ff3fe608060405234801561000f575f80fd5b506004361061003f575f3560e01c8063209652551461004357806355241077146100615780638903c5a21461007d575b5f80fd5b61004b61009d565b604051610058919061011a565b60405180910390f35b61007b60048036038101906100769190610161565b6100a5565b005b6100856100e5565b604051610094939291906101c6565b60405180910390f35b5f8054905090565b805f819055507f93fe6d397c74fdf1402a8b72e47b68512f0510d7b98a4bc4cbdf6ac7108b3c59816040516100da919061011a565b60405180910390a150565b5f805f600160f81b600260f81b600360f81b925092509250909192565b5f819050919050565b61011481610102565b82525050565b5f60208201905061012d5f83018461010b565b92915050565b5f80fd5b61014081610102565b811461014a575f80fd5b50565b5f8135905061015b81610137565b92915050565b5f6020828403121561017657610175610133565b5b5f6101838482850161014d565b91505092915050565b5f7fff0000000000000000000000000000000000000000000000000000000000000082169050919050565b6101c08161018c565b82525050565b5f6060820190506101d95f8301866101b7565b6101e660208301856101b7565b6101f360408301846101b7565b94935050505056fea264697066735822122011aea6f8d586739bd30874912df456fc875dade68d51119e4e588ada7f08184c64736f6c63430008180033","linkReferences":{}},"methodIdentifiers":{"benchmark()":"8903c5a2","getValue()":"20965255","setValue(uint256)":"55241077"},"id":0}